:10092C00456E7465722050617373776F72643A0010
:10093C0000436F72726563742050617373776F72CA
:10094C006400416363657373204772616E74656400
:10095C000057726F6E672050617373776F7264000B
:0E096C004163636573732044656E69656400C2
:100ACE000928313541382A44362300100A31323391
:0D0ADE004134353642373839432A3023443D
:1009C200E4F5A0C282C280C2817F38FE120B0512FA
:1009D2000A357F067E00120B05120A357F0C7E0057
:1009E200120B05120A357F017E00120B05120A3521
:0709F2007F807E00020B056F
:090A30007E00120B057F047E001C
:100A3900E4FDFCC3ED9FEC9E5015E4FBFA0BBB00F3
:0F0A4900010ABA01F8BB7EF50DBD00010C80E477
:010A5800227B
:100B0500C280C281D2828FA07F0A7E00120A39C2BA
:020B150082223A
:100B1700D280C281D2828FA07F0A7E00120A39C298
:020B2700822228
:100AA9008B378A388939AB37AA38A939120AEC60E9
:100AB900130539E5397002053814F9120AECFF12E9
:050AC9000B1780E22282
:100A59008B318A3289337F017E00120B057F801228
:100A69000A30AB31AA32A933120AA97FC0120A305F
:090A7900AB34AA35A936020AA922
:10097A0075B0EFE5B0540F640F6004E4FEFF227413
:10098A00F025B0F5B0E5B0540F640F60057E007F26
:10099A00012274E025B0F5B0E5B0540F640F60058C
:1009AA007E007F022274C025B0F5B0E5B0540F6412
:0809BA000F60047E007F0322A0
:100A8200E5B0B40704E4FEFF22E5B0B40B057E0036
:100A92007F0122E5B0B40D057E007F0222E5B0B4ED
:070AA2000E047E007F032219
:1009F90053B00FE5B0B40FFBE5B0640F60FA7F1494
:100A09007E00120A39E5B0640F60E5120A828E0889
:100A19008F0912097A8E228F23E52325E025E02408
:060A29000A2509F8E6FFB2
:010A2F0022A4
:100800001209C27526007527017534FF7535097503
:10081000363C7BFF7A09792C120A597FC07E001280
:100820000B05E4F524F52575B00F1209F9AE257412
:100830001A2EF8A60774282EF8E6FD741A2EF8E68C
:10084000FF6D6005E4F526F527120B177F06120AE7
:10085000300525E52570020524C39408E52464804D
:10086000948040C37FE87E03120A39E5276401457E
:100870002670117534FF75350975364E7BFF7A0980
:10088000793D800F7534FF75350975366C7BFF7ABD
:1008900009795D120A597FB87E0B120A39020800E5
:030000000208A053
:0C08A000787FE4F6D8FD7581390208E786
:100AEC00BB010689828A83E0225002E722BBFE0208
:090AFC00E32289828A83E493223B
:1008AC00020800E493A3F8E493A34003F68001F25A
:1008BC0008DFF48029E493A3F85407240CC8C3334D
:1008CC00C4540F4420C8834004F456800146F6DF1C
:1008DC00E4800B0102040810204080900ACEE47ED4
:1008EC00019360BCA3FF543F30E509541FFEE49311
:1008FC00A360010ECF54C025E060A840B8E493A3D8
:10090C00FAE493A3F8E493A3C8C582C8CAC583CA02
:10091C00F0A3C8C582C8CAC583CADFE9DEE780BEBA
:010AEB00000A
:00000001FF
