:070A9C000030303A30300059
:1009B300E4F5A0C282C280C2817F38FE120A6112AE
:1009C30009EF7F067E00120A611209EF7F0C7E0099
:1009D300120A611209EF7F017E00120A611209EF08
:0709E3007F807E00020A6123
:0909EA007E00120A617F047E0008
:1009F300E4FDFCC3ED9FEC9E5015E4FBFA0BBB003A
:0F0A0300010ABA01F8BB7EF50DBD00010C80E4BD
:010A120022C1
:100A6100C280C281D2828FA07F0A7E001209F3C2A6
:020A71008222DF
:100A7300D280C281D2828FA07F0A7E001209F3C284
:020A83008222CD
:100A3C008B178A188919AB17AA18A9191208006004
:100A4C00130519E5197002051814F9120800FF12A4
:050A5C000A7380E22294
:100A13008B118A1289137F017E00120A617F801273
:100A230009EAAB11AA12A913120A3C7FC01209EA00
:090A3300AB14AA15A916020A3C35
:03001B00020A9145
:0B0A9100B2B7758DBE758BE5D28E32BA
:03000B00020927C0
:10092700C0E0C0F0C083C082C0D075D000C000C096
:1009370001C002C003C004C005C006C007758CFF14
:10094700758AC4D28C051BE51B7002051A1208A410
:10095700D007D006D005D004D003D002D001D000F4
:0B096700D0D0D082D083D0F0D0E0329E
:1008A400E51B24FFF522E51A34FFF521FEAF227C77
:1008B400027D58120819EF2430F51CAE21AF227CBA
:1008C400027D581208198C218D22AE21AF227C00A2
:1008D4007D3C120819EF2430F51DAE21AF227C00B7
:1008E4007D3C1208198C218D22AE21AF227C007D23
:1008F4000A120819EF2430F51FAE21AF227C007DC7
:100904000A1208198C218D22E5222430F520751E47
:100914003A7514FF75150A75169C7B007A00791CCC
:03092400020A13B1
:100972001209B31209EF7514FF75150A75169C7BDF
:10098200FF7A0A799D120A13E4F51AF51B75891587
:10099200758CFF758DBE758AFE758BE5D2A9D2ABBB
:1009A200D2AFD28CD28E209004C2AF80F9D2AF8067
:0109B200F54F
:03000000020A856C
:0C0A8500787FE4F6D8FD7581220209722A
:10080000BB010689828A83E0225002E722BBFE02F6
:09081000E32289828A83E4932229
:10081900C2D5EC30E709B2D5E4C39DFDE49CFCEEFA
:1008290030E715B2D5E4C39FFFE49EFE12084FC31B
:10083900E49DFDE49CFC800312084F30D507C3E416
:060849009FFFE49EFE2269
:10084F00BC000BBE0029EF8DF084FFADF022E4CC8D
:10085F00F875F008EF2FFFEE33FEEC33FCEE9DEC56
:10086F00984005FCEE9DFE0FD5F0E9E4CEFD22ED9C
:10087F00F8F5F0EE8420D21CFEADF075F008EF2FE6
:10088F00FFED33FD4007985006D5F0F222C398FDD7
:05089F000FD5F0EA2274
:00000001FF
