:03000000020100FA
:04010000313080FE1C
:1001300075900F31948590713194E59075F010A40D
:100140002571F571857173857175A87218319F31AC
:10015000B8D8FA78727400D6F580F590319475901D
:10016000003189E58075F010A4F590319475900008
:100170003189215322C00078F4D8FED00022C0007B
:1001800078C83175D8FCD00022C0007814317ED8F0
:10019000FCD00022C00078053189D8FCD00022C3F1
:1001A000E5738575F0A4F57385F080C38575F0E57A
:1001B00074A4A98029F57422C3E5739570F573E5DD
:1001C000749400F57450F1E5732570F5737574003F
:0101D000220C
:00000001FF
