:0D08FF002020202057454C434F4D45000060
:10080000E4F5A0C282C280C2817F38FE1208DB12EA
:10081000083C7F067E001208DB12083C7F0C7E003D
:100820001208DB12083C7F017E001208DB12083C34
:070830007F807E000208DB5F
:090837007E001208DB7F047E0044
:10084000E4FDFCC3ED9FEC9E5015E4FBFA0BBB00EE
:0F085000010ABA01F8BB7EF50DBD00010C80E472
:01085F002276
:1008DB00C280C281D2828FA07F0A7E00120840C2E2
:0208EB00822267
:1008ED00D280C281D2828FA07F0A7E00120840C2C0
:0208FD00822255
:100889008B0E8A0F8910AB0EAA0FA9101208AE6041
:10089900130510E5107002050F14F91208AEFF12C6
:0508A90008ED80E222D1
:100860008B088A09890A7F017E001208DB7F8012CB
:100870000837AB08AA09A90A1208897FC0120837ED
:09088000AB0BAA0CA90D020889BA
:1008C700750BFF750C09750D0B7BFF7A0879FF1205
:0408D700086080FE37
:0300000002090CE6
:0C090C00787FE4F6D8FD7581100208C762
:1008AE00BB010689828A83E0225002E722BBFE0248
:0908BE00E32289828A83E493227B
:00000001FF
