:100DC300E4F5A0C282C280C2817F38FE120E711286
:100DD3000DFF7F067E00120E71120DFF7F0C7E0049
:100DE300120E71120DFF7F017E00120E71120DFFA4
:070DF3007F807E00020E71FB
:090DFA007E00120E717F047E00E0
:100E0300E4FDFCC3ED9FEC9E5015E4FBFA0BBB0025
:0F0E1300010ABA01F8BB7EF50DBD00010C80E4A9
:010E220022AD
:100800008F5B8E5A8D598C588B5C8A5D895E7B001C
:100810007AE179F57805120C10EF2430AB5CAA5D13
:10082000A95E900006120B637B007AE179F57805EA
:10083000AF5BAE5AAD59AC58120C10AC00AD01AE66
:1008400002AF037B807A9679987800120C10EF241F
:1008500030AB5CAA5DA95E900007120B637B807AC7
:100860009679987800AF5BAE5AAD59AC58120C101F
:10087000AC00AD01AE02AF037B407A42790F780045
:10088000120C10EF2430AB5CAA5DA95E9000081238
:100890000B637B407A42790F7800AF5BAE5AAD595B
:1008A000AC58120C10AC00AD01AE02AF037BA07AC5
:1008B0008679017800120C10EF2430AB5CAA5DA998
:1008C0005E900009120B637BA07A8679017800AFF5
:1008D0005BAE5AAD59AC58120C10AC00AD01AE0273
:1008E000AF03E47B107A27F9F8120C10EF2430AB39
:1008F0005CAA5DA95E90000A120B63E47B107A2764
:10090000F9F8AF5BAE5AAD59AC58120C10AC00AD53
:1009100001AE02AF03E47BE87A03F9F8120C10EFA2
:100920002430AB5CAA5DA95E90000B120B63E47BE4
:10093000E87A03F9F8AF5BAE5AAD59AC58120C1017
:10094000AC00AD01AE02AF03E47B64FAF9F8120C1F
:1009500010EF2430AB5CAA5DA95E90000C120B6313
:10096000E47B64FAF9F8AF5BAE5AAD59AC58120C9F
:1009700010AC00AD01AE02AF03E47B0AFAF9F81245
:100980000C10EF2430AB5CAA5DA95E90000D120B39
:1009900063E47B0AFAF9F8AF5BAE5AAD59AC581272
:1009A0000C10EB2430AB5CAA5DA95E90000E020B2C
:0109B00063E3
:100CA2008F5B8E5A8D598C588B5C8A5D895EE47B92
:100CB200107A27F9F8120C10EF2430AB5CAA5DA968
:100CC2005E900006120B63E47B107A27F9F8AF5BA3
:100CD200AE5AAD59AC58120C10AC00AD01AE02AF19
:100CE20003E47BE87A03F9F8120C10EF2430AB5CD2
:100CF200AA5DA95E900007120B63E47BE87A03F910
:100D0200F8AF5BAE5AAD59AC58120C10AC00AD0145
:100D1200AE02AF03E47B64FAF9F8120C10EF243050
:100D2200AB5CAA5DA95E900008120B63E47B64FAD7
:100D3200F9F8AF5BAE5AAD59AC58120C10AC00AD1D
:100D420001AE02AF03E47B0AFAF9F8120C10EF24A9
:100D520030AB5CAA5DA95E900009120B63E47B0ACA
:100D6200FAF9F8AF5BAE5AAD59AC58120C10EB243D
:0D0D720030AB5CAA5DA95E90000A020B6325
:100E7100C280C281D2828FA07F0A7E00120E03C27D
:020E81008222CB
:100E8300D280C281D2828FA07F0A7E00120E03C25B
:020E93008222B9
:100E4C008B5E8A5F8960AB5EAA5FA960120B4A60F9
:100E5C00130560E5607002055F14F9120B4AFF126E
:050E6C000E8380E2226C
:100E23008B588A59895A7F017E00120E717F801276
:100E33000DFAAB58AA59A95A120E4C7FC0120DFADB
:090E4300AB5BAA5CA95D020E4C38
:1009B100120DC3753850753972753A6F753B647590
:1009C1003C32753D3D754874754969754A6D754B85
:1009D10065754C32754D3D758911E4F58AF58CD2FA
:1009E1008C7513A975120BF511F510750B01F50A2C
:1009F100F509F508751B63751A04F519F518750FD6
:100A010007F50EF50DF50CAF0FAE0EAD0DAC0CAB41
:100A11000BAA0AA909A808120B858F178E168D1526
:100A21008C14E50F251BFBE50E351AFAE50D35197A
:100A3100F9E50C3518F8E50B2513FFE50A3512FE2B
:100A4100E5093511FDE5083510FC120B858F1F8E68
:100A51001E8D1D8C1CAF1BAE1AAD19AC18AB13AAA1
:100A610012A911A810120B858F238E228D218C20A3
:100A7100C3E51F9517FFE51E9516FEE51D9515FDAE
:100A8100E51C9514FCC3EF9523FFEE9522FEED9531
:100A910021FDEC9520FCE47B0AFAF9F8120B85EFB5
:100AA1002517FFEE3516FEED3515FDEC3514FCC0AE
:100AB10004C005C006C007E47F64FEFDFCAB23AAA9
:100AC10022A921A820120B85D003D002D001D00089
:100AD100EF2BF52BEE3AF52AED39F529EC38F5280F
:100AE100C28CAF8CEFFEAD8A7C00E42DFFEC3EFEA4
:100AF100E48F338E32F531F5307B02FAF9F8AD31FE
:100B0100AC30120D7F8F278E268D258C24AF2BAE16
:100B11002AAD29AC287B007A007938120800AF276A
:100B2100AE26AD25AC247B007A007948120CA27563
:100B31005375755473755B00755C00755D487B007A
:090B41007A007938120E2380FEBF
:03000000020E9558
:0C0E9500787FE4F6D8FD7581600209B199
:100B4A00BB010689828A83E0225002E722BBFE02A9
:090B5A00E32289828A83E49322DC
:100B6300F8BB010DE58229F582E5833AF583E8F0C8
:100B7300225006E92582C8F622BBFE05E92582C874
:020B8300F2225C
:100B8500E88FF0A4CC8BF0A42CFCE98EF0A42CFC0F
:100B95008AF0EDA42CFCEA8EF0A4CDA8F08BF0A48D
:100BA5002DCC3825F0FDE98FF0A42CCD35F0FCEBEC
:100BB5008EF0A4FEA9F0EB8FF0A4CFC5F02ECD39B1
:0F0BC500FEE43CFCEAA42DCE35F0FDE43CFC221E
:100BD40075F008758200EF2FFFEE33FECD33CDCCD8
:100BE40033CCC58233C5829BED9AEC99E58298405B
:100BF4000CF582EE9BFEED9AFDEC99FC0FD5F0D638
:100C0400E4CEFBE4CDFAE4CCF9A88222B800C1B961
:100C14000059BA002DEC8BF084CFCECDFCE5F0CB9F
:100C2400F97818EF2FFFEE33FEED33FDEC33FCEBD8
:100C340033FB10D703994004EB99FB0FD8E5E4F993
:100C4400FA227818EF2FFFEE33FEED33FDEC33FC80
:100C5400C933C910D7059BE99A4007EC9BFCE99A74
:100C6400F90FD8E0E4C9FAE4CCFB2275F010EF2FB9
:100C7400FFEE33FEED33FDCC33CCC833C810D707B9
:100C84009BEC9AE899400AED9BFDEC9AFCE899F8F4
:0E0C94000FD5F0DAE4CDFBE4CCFAE4C8F92287
:100D7F00C2D5E830E70FB2D5E4C39BFBE49AFAE49F
:100D8F0099F9E498F8EC30E717B2D5120DB5120CBB
:100D9F0010E4C39BFBE49AFAE499F9E498F8800312
:100DAF00120C1030D50DE4C39FFFE49EFEE49DFDB1
:040DBF00E49CFC2292
:00000001FF
