:100ADA0053544152542050524F4752414D00004600
:100AEA004952535420494E505554004E45585420AB
:100AFA00494E50555400534F5254494E4700434FA4
:100B0A004D504C45544544004E554D424552205493
:100B1A004F204245005345415243484544004E55F3
:100B2A004D424552004E4F5420464F554E440054B4
:0C0B3A00484520494E44455820495300CE
:100B4600E4F5A0C282C280C2817F38FE120C2B124D
:100B56000BE27F067E00120C2B120BE27F0C7E004E
:100B6600120C2B120BE27F017E00120C2B120BE2F1
:070B76007F807E00020C2BC2
:090BDD007E00120C2B7F047E0047
:100BE600E4FDFCC3ED9FEC9E5015E4FBFA0BBB0045
:0F0BF600010ABA01F8BB7EF50DBD00010C80E4C9
:010C050022CC
:100C2B00C280C281D2828FA07F0A7E00120BE6C2E5
:020C3B00822213
:100C3D00D280C281D2828FA07F0A7E00120BE6C2C3
:020C4D00822201
:100C06008B228A238924AB22AA23A924120A5C6098
:100C1600130524E5247002052314F9120A5CFF1259
:050C26000C3D80E222FC
:10099600E4F514F515E4F516F517C374049515FF7B
:1009A600E49514FEC3E5179FEE6480F8E5166480AF
:1009B600984003020A4AE5172401FFE43516FEEFC4
:1009C60025E0FFEE338F82F583120A75FDACF0E564
:1009D6001725E0FFE516338F82F583120A75FFAE01
:1009E600F0D39DEC6480F8EE64809840498E188FB1
:1009F60019E5172401FFE43516FEEF25E0FFEE3377
:100A06008F82F583120A75FDE51725E0FFE516339B
:100A16008F82F583E5F08DF0120AADE5172401FF0C
:100A2600E43516FEEF25E0FFEE338F82F583E518F9
:100A36008519F0120AAD0517E51760030209A0052E
:100A4600160209A00515E51570020514640445147F
:060A5600600302099B226F
:040B7D008C1C8D1D22
:100B8100E4FDFCED25E0FFEC338F82F583120A755D
:100B9100B51D0AE5F0B51C05AF05AE04220DBD007B
:0C0BA100010CED64054C70DB7EFF7FFF53
:010BAD002225
:060BAE007BFF7A0B7900C9
:100BB4008B1C8A1D891E7F017E00120C2B7F8012E4
:100BC4000BDDAB1CAA1DA91E120C067FC0120BDD87
:090BD400AB1FAA20A921020C06A6
:10080000120B46751FFF75200A7521E87BFF7A0AD7
:1008100079DA120BB47F887E13120BE675900F7590
:100820001FFF75200A7521E87BFF7A0A79E9120B10
:10083000B47F887E13120BE6AF90750A008F0B759C
:100840001400751501E51525E02408F808E6C454E0
:10085000F0F590751FFF75200A7521E87BFF7A0A75
:1008600079F5120BB47F887E13120BE675900F7F1B
:10087000E87E03120BE6AF90E51525E0240AF87632
:100880000008A6070515E51570020514C39405E5D3
:10089000146480948040AEE513C454F0F590751F45
:1008A000FF75200A7521E8120BAE7F887E13120BAC
:1008B000E6E4F5907FE87E03120BE6751FFF7520D6
:1008C0000B752108120BAE7B007A00790A1209968B
:1008D000E4F514F515E51525E0240AF808E6C454F6
:1008E000F0F5907F887E13120BE6E4F5907FE87EAA
:1008F00003120BE60515E51570020514C39405E512
:10090000146480948040CE7590FF751FFF75200B96
:1009100075211F7BFF7A0B7912120BB47F887E132F
:10092000120BE6AF90EF2410F51BE434FFF51A75B7
:100930001FFF75200A7521E87BFF7A0A79E8120B00
:10094000B4E4F5907FE87E03120BE67B007A007931
:100950000AAD1BAC1A120B7D8E088F09E509B4FF96
:1009600019E508B4FF14751FFF75200B75212F7B47
:10097000FF7A0B7928120BB4801A751FFF75200AB5
:100980007521E87BFF7A0B7939120BB4E50904C4B1
:0609900054F0F59080FE1A
:03000000020C4FA0
:0C0C4F00787FE4F6D8FD758124020800CF
:100A5C00BB010689828A83E0225002E722BBFE0298
:090A6C00E32289828A83E49322CB
:100A7500BB0110E58229F582E5833AF583E0F5F0BF
:100A8500A3E0225009E92582F886F008E622BBFE9C
:100A95000AE92582F8E2F5F008E222E5832AF583E2
:080AA500E993F5F0A3E99322A7
:100AAD00F8BB0111E58229F582E5833AF583E8F07B
:100ABD00E5F0A3F0225009E92582C8F608A6F02238
:0D0ACD00BBFE09E92582C8F2E5F008F2221F
:00000001FF
