:03000000020100FA
:0C010000C297C296C295C294313080FEB6
:10013000D290D291D292D293E590B40114785075B6
:100140008080319DD8FC7850758000319DD8FC218D
:100150009AB403167846758080319DD8FC78467530
:100160008000319DD8FC219A219AB40716783E75FB
:100170008080319DD8FC783E758000319DD8FC216F
:100180009A219AB40F14783B758080319DD8FC7801
:100190003B758000319DD8FC219A213022C0007827
:0601A00013D8FED000227E
:00000001FF
