:03000000020100FA
:0801000031303156318580FEDB
:100130007860790F741029F9899031B7C3E590750B
:10014000F010A4F6C3741029F9899031B7C3E59073
:10015000D608B864DF2278607970C3740996500FAE
:10016000C3741396500DC3741D96500B400DC37786
:1001700005217F770F217F7719217F7723217F0842
:1001800009B864D6227870B6050575901021A2B61C
:100190000F0575902021A2B6190575904021A27512
:1001A000908031AB08B874DF2185227A327B64C33A
:1001B00031BCDBFCDAF72231AB31AB22C000780472
:1001C00031C7D8FCD00022C00078F4D8FED000227D
:00000001FF
