:0A0DD400566F6C743A00206D560053
:0A0DC900C100060800000000000051
:100D0300E4F5A0C282C280C2817F38FE120D99121F
:100D13000D5F7F067E00120D99120D5F7F0C7E0022
:100D2300120D99120D5F7F017E00120D99120D5F56
:070D33007F807E00020D9994
:040D5F007F047E008F
:100D6300E4FDFCC3ED9FEC9E5015E4FBFA0BBB00C6
:0F0D7300010ABA01F8BB7EF50DBD00010C80E44A
:010D8200224E
:100A9B008E2C8F2D8B2E8A2F89307C277D10120A5E
:100AAB0012EF24301209DEAE2CAF2D7C277D1012F5
:100ABB000A127E037FE8CFCDCFCECCCE120A12EF37
:100ACB002430AB2EAA2FA9309000011209F0AE2CC6
:100ADB00AF2D7C037DE8120A127E007F64CFCDCF51
:100AEB00CECCCE120A12EF2430AB2EAA2FA9309007
:100AFB0000021209F0AE2CAF2D7C007D64120A129D
:100B0B007E007F0ACFCDCFCECCCE120A12EF24308F
:100B1B00AB2EAA2FA9309000031209F0AE2CAF2DEB
:100B2B007C007D0A120A12ED2430AB2EAA2FA930BD
:060B3B009000040209F025
:100D9900C280C281D2828FA07F0A7E00120D63C2F7
:020DA9008222A4
:100DAB00D280C281D2828FA07F0A7E00120D63C2D5
:020DBB00822292
:100D3A008B2C8A2D892EAB2CAA2DA92E1209C560BF
:100D4A0013052EE52E7002052D14F91209C5FF129E
:050D5A000DAB80E22258
:0C0DBD0075C33B43B104D2AF43C34022D6
:080CA7008F3B8E3A8D398C3829
:100CAF00C2007810120A75E48FC53000FDA90EC27C
:100CBF0000AF3BAE3AAD39AC387808120A758FC524
:100CCF003000FDAB0EC200E53BFF8FC53000FDAD20
:100CDF000EEB7B00FA7E00E97810C333CE33CED80B
:100CEF00F92BFFEE3AFE7C00EF2DFFEC3EFE339525
:030CFF00E0FDFC19
:010D020022CE
:03004B00020D8320
:100D8300C0E0C0D0E5C454F02480700585C50ED200
:060D930000D0D0D0E032D8
:030DDE00D294228A
:020C4200AB07FE
:100C4400E4F533F532753101F530EF75F010A47E1B
:100C5400005470FFEE3395E0FDFCEF4480FFED7827
:100C640008120A888F378E368D358C34E533253754
:100C7400FFE5323536FEE5313535FDE5303534FCFA
:100C8400C294120CA78F2F8E2E8D2D8C2CD294E50E
:100C94002FF52FE52E5403F52EE4F52DF52CAE2E6D
:020CA400AF2F70
:010CA600222B
:100BCD00E4F521F522F523F524120DBD120DDE12EB
:020BDD000D0306
:100BDF007F04120C428E258F26AC25AD26E4120918
:100BEF000B7B827A73794E78401208001209448E7B
:100BFF00238F247B007A007927120A9B7F807E0047
:100C0F00120D997BFF7A0D79D4120D3A120D5F7F79
:100C1F00C0120D997B007A007927120D3A120D5FE1
:100C2F007FC5120D997BFF7A0D79DA120D3A120DED
:010C3F005F55
:020C4000809D95
:10080000EC4D6011E8497017ED33EC3304600DE4F2
:10081000FCFFFEFD22E933E8330470F80209B01250
:10082000097B58046009E4CC248150062850090251
:1008300009BA2840030209B7C0E0EB4A7044B98006
:1008400006D0E0FB0209A6EF4E701CBD8008EBFF4E
:10085000EAFEE9FD80EBE98DF0A4FEE5F00208E98F
:10086000E9CDF9EAFEEBFFEF89F0A4FCE5F0CE89D3
:10087000F0A42EFFE435F0CD89F0A42DFEE435F090
:100880008067EF4E7005BD80D780C3EF8BF0A4ACBE
:10089000F0EE8BF0A42CFCE435F0F8EF8AF0A42CF9
:1008A000E5F038FCE433CB8DF0A42CFCE5F03BF80C
:1008B000EE8AF0A42CFCE5F038F8E433CF89F0A4FC
:1008C0002CFCE5F038CF3400CE89F0A42FFFE5F002
:1008D0003EFEE433C98DF0A42EFEE5F039CD8AF05A
:1008E000A42FFFE5F03EFEE43DFD33D0E0FB5007D2
:1008F0000BBB000F0209BAEC2CFCEF33FFEE33FE0A
:06090000ED33FD02099237
:1009060075F020800E75F010800575F0087D007E6C
:10091600007F003392D530D503120A67EC334010BE
:10092600EF33FFEE33FEED33FDEC33FCD5F0ED2275
:0E093600E5F0247EA2D513CC92E7CDCEFF22B1
:10094400EDD2E7CD33EC3392D524814006E4FFFEAB
:10095400FDFC22FCE4CFCECDCC24E0501174FF800A
:10096400EDC3CC13CCCD13CDCE13CECF13CF0470A7
:07097400F030D5DE020A6736
:10097B00E9D2E7C933E833F892D5EDD2E7CD33ECC2
:07098B0033FC5002B2D5223B
:10099200EC30E7100FBF000C0EBE00080DBD0004C6
:1009A2000BEB6014A2D5EB13FCED92E7FD2274FF72
:1009B200FCFDFEFF22E480F8A2D574FF13FC7D80CB
:0309C200E480EFDF
:03000000020B41AF
:0C0B4100787FE4F6D8FD75813B020B883C
:1009C500BB010689828A83E0225002E722BBFE0230
:0909D500E32289828A83E4932263
:1009DE00BB010689828A83F0225002F722BBFE01F8
:0209EE00F322F2
:1009F000F8BB010DE58229F582E5833AF583E8F03D
:100A0000225006E92582C8F622BBFE05E92582C8E8
:020A1000F222D0
:100A1200BC000BBE0029EF8DF084FFADF022E4CCC8
:100A2200F875F008EF2FFFEE33FEEC33FCEE9DEC91
:100A3200984005FCEE9DFE0FD5F0E9E4CEFD22EDD7
:100A4200F8F5F0EE8420D21CFEADF075F008EF2F21
:100A5200FFED33FD4007985006D5F0F222C398FD12
:050A62000FD5F0EA22AF
:0E0A6700C3E49FFFE49EFEE49DFDE49CFC22A0
:100A7500E8600FECC313FCED13FDEE13FEEF13FF5F
:030A8500D8F12283
:100A8800E8600FEFC333FFEE33FEED33FDEC33FCCC
:030A9800D8F12270
:100B4D00020BCDE493A3F8E493A34003F68001F2E6
:100B5D0008DFF48029E493A3F85407240CC8C333A9
:100B6D00C4540F4420C8834004F456800146F6DF78
:100B7D00E4800B0102040810204080900DC9E47E32
:100B8D00019360BCA3FF543F30E509541FFEE4936D
:100B9D00A360010ECF54C025E060A840B8E493A334
:100BAD00FAE493A3F8E493A3C8C582C8CAC583CA5F
:100BBD00F0A3C8C582C8CAC583CADFE9DEE780BE17
:010DD300001F
:00000001FF
