:1009920053544152542050524F4752414D2020202F
:1009A20000464952535420494E505554202020208D
:1009B20020004E45585420494E50555420202020A6
:1009C200202000534F5254494E472E2E2E202020D5
:1009D20020202000534F5254494E472020202020EF
:1009E2002020202000434F4D504C455445442020A8
:1009F2002020202020004E554D42455220544F20A9
:100A0200424520202020005345415243484544207E
:100A1200202020202020200054484520494E4445D3
:100A22005820495320202020004E554D4245522047
:100A32002020202020202020004E4F5420464F55B9
:090A42004E442020202020200059
:0C0C49000A0A000000000000000000008B
:100B9900E4F5A0C282C280C2817F38FE120C141211
:100BA9000BD37F067E00120C14120BD37F0C7E0030
:100BB900120C14120BD3120C10120BD37F807E006F
:030BC900020C1407
:0B0BCC007F017E00120C147F047E00ED
:100BD700E4FDFCC3ED9FEC9E5015E4FBFA0BBB0054
:0F0BE700010ABA01F8BB7EF50DBD00010C80E4D8
:010BF60022DC
:040C10007F017E00E2
:100C1400C280C281D2828FA07F0A7E00120BD7C20B
:020C240082222A
:100C2600D280C281D2828FA07F0A7E00120BD7C2E9
:020C3600822218
:100B5D00120C387F017E00120C147F807E00120C67
:070B6D00147BFF7A0979B443
:100B74008B188A19891AAB18AA19A91A120BF760CB
:100B840013051AE51A7002051914F9120BF7FF126E
:050B94000C2680E222A6
:100C3800A2B39297A2B29296A2B19295A2B09294C0
:010C48002289
:100AD700E4F514F515E4F516F517C374049515FF39
:100AE700E49514FEC3E5179FEE6480F8E51664806D
:100AF700985054AF17EF25E0240CF8E6FC08E6FD04
:100B0700EF25E0240AF8E6FE08E6FFD39DEC6480B3
:100B1700F8EE6480984026E51725E0240CF8E6F502
:100B27000808E6F509AD17ED25E0240CF8A6060838
:100B3700A607ED25E0240AF8A60808A6090517E583
:100B4700177097051680930515E51570020514644F
:060B570004451470802229
:10080000120B99740A7F80120BCE7BFF7A097992C2
:10081000120B747F887E13120BD7120BCC7F8012C1
:100820000C147BFF7A0979A3120B747F887E131254
:100830000BD7AF90750A008F0B120B607F887E1369
:10084000120BD7AF90750C008F0D850BB0120B5D9E
:100850007F887E13120BD7AF90750E008F0F850D1A
:10086000B0120B5D7F887E13120BD7AF907510000E
:100870008F11850FB0120B5D7F887E13120BD7AFDF
:10088000907512008F138511B0120C38120C108560
:1008900013B07F887E13120BD77F807E00120C145A
:1008A0007BFF7A0979C5120B74120AD7120C107FDC
:1008B000807E00120C147BFF7A0979D6120B747FAC
:1008C000C07E00120C147BFF7A0979E7120B74E4E6
:1008D000F514F515E51525E0240AF808E6F5B0123B
:1008E0000C387F887E13120BD7E4F5907FE87E03E7
:1008F000120BD70515E51570020514C39405E51410
:100900006480948040CE7590FF120BCC7F80120CD7
:10091000147BFF7A0979F8120B74120BD37FC01283
:100920000C147BFF7A0A7909120B747F887E1312EC
:100930000BD7E4F514F515E51525E0240AF8E6FED5
:1009400008E6AD90B50523E4B5061F0515E515705D
:10095000020514F5B0120C387F807E00120C147B57
:10096000FF7A0A791A120B7480FE0515E5157002DC
:100970000514C39405E5146480948040BA7590FF13
:100980007BFF7A0A792B120B747BFF7A0A793B0280
:020990000B74E6
:03000000020A4BA6
:0C0A4B00787FE4F6D8FD75811A020A924B
:100BF700BB010689828A83E0225002E722BBFE02FC
:090C0700E32289828A83E493222E
:100A5700020800E493A3F8E493A34003F68001F2AD
:100A670008DFF48029E493A3F85407240CC8C333A0
:100A7700C4540F4420C8834004F456800146F6DF6F
:100A8700E4800B0102040810204080900C49E47EAA
:100A9700019360BCA3FF543F30E509541FFEE49364
:100AA700A360010ECF54C025E060A840B8E493A32B
:100AB700FAE493A3F8E493A3C8C582C8CAC583CA56
:100AC700F0A3C8C582C8CAC583CADFE9DEE780BE0E
:010C5500009E
:00000001FF
