:0C0F1500042C0000749B043000002BE54D
:100E4300E4F5A0C282C280C2817F38FE120EF11285
:100E53000E7F7F067E00120EF1120E7F7F0C7E0046
:100E6300120EF1120E7F7F017E00120EF1120E7F21
:070E73007F807E00020EF1FA
:090E7A007E00120EF17F047E00DF
:100E8300E4FDFCC3ED9FEC9E5015E4FBFA0BBB00A5
:0F0E9300010ABA01F8BB7EF50DBD00010C80E429
:010EA200222D
:1009D1008F678E668D658C648B688A69896A7B00F6
:1009E1007AE179F57805120C48EF2430AB68AA69F1
:1009F100A96A900006120B9B7B007AE179F57805D4
:100A0100AF67AE66AD65AC64120C48AC00AD01AE2B
:100A110002AF037B807A9679987800120C48EF2414
:100A210030AB68AA69A96A900007120B9B7B807A98
:100A31009679987800AF67AE66AD65AC64120C48E4
:100A4100AC00AD01AE02AF037B407A42790F780072
:100A5100120C48EF2430AB68AA69A96A9000081209
:100A61000B9B7B407A42790F7800AF67AE66AD652C
:100A7100AC64120C48AC00AD01AE02AF037BA07AAE
:100A81008679017800120C48EF2430AB68AA69A975
:100A91006A900009120B9B7BA07A8679017800AFDE
:100AA10067AE66AD65AC64120C48AC00AD01AE0238
:100AB100AF03E47B107A27F9F8120C48EF2430AB2E
:100AC10068AA69A96A90000A120B9BE47B107A2735
:100AD100F9F8AF67AE66AD65AC64120C48AC00AD19
:100AE10001AE02AF03E47BE87A03F9F8120C48EF98
:100AF1002430AB68AA69A96A90000B120B9BE47BB6
:100B0100E87A03F9F8AF67AE66AD65AC64120C48DC
:100B1100AC00AD01AE02AF03E47B64FAF9F8120C4C
:100B210048EF2430AB68AA69A96A90000C120B9BAC
:100B3100E47B64FAF9F8AF67AE66AD65AC64120C9C
:100B410048AC00AD01AE02AF03E47B0AFAF9F8123A
:100B51000C48EF2430AB68AA69A96A90000D120B0A
:100B61009BE47B0AFAF9F8AF67AE66AD65AC641237
:100B71000C48EB2430AB68AA69A96A90000E020BFD
:010B81009BD8
:100CDA008F678E668D658C648B688A69896AE47B06
:100CEA00107A27F9F8120C48EF2430AB68AA69A9E0
:100CFA006A900006120B9BE47B107A27F9F8AF671B
:100D0A00AE66AD65AC64120C48AC00AD01AE02AF84
:100D1A0003E47BE87A03F9F8120C48EF2430AB6855
:100D2A00AA69A96A900007120B9BE47BE87A03F987
:100D3A00F8AF67AE66AD65AC64120C48AC00AD01A5
:100D4A00AE02AF03E47B64FAF9F8120C48EF2430E0
:100D5A00AB68AA69A96A900008120B9BE47B64FA43
:100D6A00F9F8AF67AE66AD65AC64120C48AC00AD7D
:100D7A0001AE02AF03E47B0AFAF9F8120C48EF2439
:100D8A0030AB68AA69A96A900009120B9BE47B0A36
:100D9A00FAF9F8AF67AE66AD65AC64120C48EB249D
:0D0DAA0030AB68AA69A96A90000A020B9B91
:100EF100C280C281D2828FA07F0A7E00120E83C27D
:020F010082224A
:100F0300D280C281D2828FA07F0A7E00120E83C25A
:020F1300822238
:100ECC008B6A8A6B896CAB6AAA6BA96C120B8260F9
:100EDC0013056CE56C7002056B14F9120B82FF1292
:050EEC000F0380E2226B
:100EA3008B648A6589667F017E00120EF17F801252
:100EB3000E7AAB64AA65A966120ECC7FC0120E7AB5
:090EC300AB67AA68A969020ECC14
:10080000120E4375445075457275466F7547647591
:10081000483175493D75547475556975566D7557F0
:100820006575583175593D758910E4F58BF58DD294
:100830008E7B0AFAF9F8AF2FAE2EAD2DAC2C120C30
:10084000488F138E128D118C10E47B0AFAF9F8AFE1
:100850002FAE2EAD2DAC2C120C48AC00AD01AE026B
:10086000AF038F0B8E0A8D098C08E47B0AFAF9F826
:10087000AF33AE32AD31AC30120C488F1B8E1A8DB7
:10088000198C18E47B0AFAF9F8AF33AE32AD31AC0B
:1008900030120C48AC00AD01AE02AF038F0F8E0ECC
:1008A0008D0D8C0CAB0BAA0AA909A808120BBD8FE1
:1008B000178E168D158C14AF1BAE1AAD19AC18AB74
:1008C0000BAA0AA909A808120BBD8F1F8E1E8D1D29
:1008D0008C1CAF0FAE0EAD0DAC0CAB13AA12A91150
:1008E000A810120BBD8F238E228D218C20AF1BAE42
:1008F0001AAD19AC18AB13AA12A911A810120BBD8E
:100900008F278E268D258C24E51F2523FFE51E3598
:1009100022FEE51D3521FDE51C3520FCE47B0AFAAD
:10092000F9F8120BBDEF2517FFEE3516FEED351564
:10093000FDEC3514FCC004C005C006C007E47F64AC
:10094000FEFDFCAB27AA26A925A824120BBDD003C7
:10095000D002D001D000EF2BF537EE3AF536ED3965
:10096000F535EC38F534C28EC28FAF8DEFFEAD8B0E
:100970007C00E42DFFEC3EFEE48F3F8E3EF53DF51E
:100980003C7B02FAF9F8AD3DAC3C120C488F2B8E43
:100990002A8D298C28AF37AE36AD35AC347B007A42
:1009A0000079441209D1AF2BAE2AAD29AC287B00C7
:1009B0007A007954120CDA755F757560737567008B
:1009C0007568007569547B007A007944120EA38023
:0109D000FE28
:03000000020DB737
:0C0DB700787FE4F6D8FD75816C020DFE1B
:100B8200BB010689828A83E0225002E722BBFE0271
:090B9200E32289828A83E49322A4
:100B9B00F8BB010DE58229F582E5833AF583E8F090
:100BAB00225006E92582C8F622BBFE05E92582C83C
:020BBB00F22224
:100BBD00E88FF0A4CC8BF0A42CFCE98EF0A42CFCD7
:100BCD008AF0EDA42CFCEA8EF0A4CDA8F08BF0A455
:100BDD002DCC3825F0FDE98FF0A42CCD35F0FCEBB4
:100BED008EF0A4FEA9F0EB8FF0A4CFC5F02ECD3979
:0F0BFD00FEE43CFCEAA42DCE35F0FDE43CFC22E6
:100C0C0075F008758200EF2FFFEE33FECD33CDCC9F
:100C1C0033CCC58233C5829BED9AEC99E582984022
:100C2C000CF582EE9BFEED9AFDEC99FC0FD5F0D6FF
:100C3C00E4CEFBE4CDFAE4CCF9A88222B800C1B929
:100C4C000059BA002DEC8BF084CFCECDFCE5F0CB67
:100C5C00F97818EF2FFFEE33FEED33FDEC33FCEBA0
:100C6C0033FB10D703994004EB99FB0FD8E5E4F95B
:100C7C00FA227818EF2FFFEE33FEED33FDEC33FC48
:100C8C00C933C910D7059BE99A4007EC9BFCE99A3C
:100C9C00F90FD8E0E4C9FAE4CCFB2275F010EF2F81
:100CAC00FFEE33FEED33FDCC33CCC833C810D70781
:100CBC009BEC9AE899400AED9BFDEC9AFCE899F8BC
:0E0CCC000FD5F0DAE4CDFBE4CCFAE4C8F9224F
:100DC300020800E493A3F8E493A34003F68001F23E
:100DD30008DFF48029E493A3F85407240CC8C33331
:100DE300C4540F4420C8834004F456800146F6DF00
:100DF300E4800B0102040810204080900F15E47E6C
:100E0300019360BCA3FF543F30E509541FFEE493F4
:100E1300A360010ECF54C025E060A840B8E493A3BB
:100E2300FAE493A3F8E493A3C8C582C8CAC583CAE6
:100E3300F0A3C8C582C8CAC583CADFE9DEE780BE9E
:010F210000CF
:00000001FF
