:100800004D6963726F2D636F6E74726F6C6C65727D
:100810007320617661696C61626C653A20000D0A33
:10082000005072657373204920666F72204973739C
:10083000756520616E64205220666F722052657467
:1008400075726E00456E746572206D6963726F2DEE
:10085000636F6E74726F6C6C657220746F2062656A
:1008600020626F72726F7765643A00456E746572CC
:10087000205175616E746974793A005265717565BD
:1008800073746564206D6963726F2D636F6E74722B
:100890006F6C6C657220616C6C6F63617465642150
:1008A00000526571756573746564206D6963726F5C
:1008B0002D636F6E74726F6C6C6572206E6F742036
:1008C000617661696C61626C652E2E2E00456E74D6
:1008D0006572206D6963726F2D636F6E74726F6CD9
:1008E0006C657220746F2062652072657475726E1B
:1008F00065643A00596F752063616E2774207265D4
:100900007475726E207768617420796F7520646FDA
:100910006E277420686176652E2E2E0052657475E0
:10092000726E6564206D6963726F2D636F6E747291
:100930006F6C6C6572207265636569766564210011
:1009400052657475726E6564206D6963726F2D6394
:100950006F6E74726F6C6C6572206F7574206F6649
:0B09600020626F756E64732E2E2E0057
:100B4100C100C102C101202829383035310000001F
:100B5100000000544956412D430000000041746DCE
:100B61006567613332387053544D333200000000F1
:100B710000075F383035312D7820076754495641D9
:100B81002D7820086E41543332382D782008765361
:100B9100544D33322D78200821000800060004004E
:0B0BA1000408560008000600040004D1
:0C0D8F0075C33F43B104D2AF43C3402200
:080C12008F178E168D158C144E
:100C1A00C2007810120CE1E48FC53000FDA966C24B
:100C2A0000AF17AE16AD15AC147808120CE18FC5DB
:100C3A003000FDAB66C200E517FF8FC53000FDAD81
:100C4A0066EB7B00FA7E00E97810C333CE33CED848
:100C5A00F92BFFEE3AFE7C00EF2DFFEC3EFE3395BA
:030C6A00E0FDFCAE
:010C6D002264
:03004B00020D594A
:100D5900C0E0C0D0E5C454F02480700585C566D2D2
:060D690000D0D0D0E03202
:030DAD00D29422BB
:020BAD00AB0794
:100BAF00E4F50FF50E750D01F50CEF75F010A47E41
:100BBF00005470FFEE3395E0FDFCEF4480FFED78BD
:100BCF0008120CF48F138E128D118C10E50F251354
:100BDF00FFE50E3512FEE50D3511FDE50C3510FC68
:100BEF00C294120C128F0B8E0A8D098C08D294E5C9
:100BFF000BF50BE50A5403F50AE4F509F508AE0AFF
:020C0F00AF0B29
:010C110022C0
:100D6F00758920758DF3759850D28ED2ACD2AF2283
:080DA5008F993002FDC2022209
:060D07007BFF7A08791E53
:100D0D008B188A19891AAB18AA19A91A120CC8605E
:100D1D0013051AE51A7002051914F9120CC8FF1201
:050D2D000DA580E2228B
:090D9B00E4FF3001FDC201AF9933
:010DA400222C
:03002300020D7F4C
:100D7F00309905C299D20232309804C298D201320A
:100C6E007BFF7A087900120D0DE5222430F564E53C
:100C7E00242430F56CE5262430F574E5282430F56F
:100C8E007C7B007A00795F120D0D7B007A0079670C
:100C9E00120D0D7B007A00796E120D0D7B007A001D
:100CAE007976120D0D120D077BFF7A087921120D40
:0A0CBE000D120D07120D9B8F53223B
:100AB6007BFF7A087944120D0D120D07120D9B8FDC
:100AC6005EEF3395E0FEEF24CFF552EE34FFF5519D
:100AD6007BFF7A08796B120D0D120D07120D9B8F95
:100AE6005EEF3395E0FEEF24D0F555EE34FFF55476
:100AF600E55225E02421F8E6FE08E6C39555E554BF
:100B06006480F8EE6480987BFF40257A08797B1232
:100B16000D0D120D07E55225E02421F8C000E6FE72
:100B260008E6C39555FFEE9554D000F608A60722B1
:0B0B36007A0879A1120D0D120D0722A4
:10096B007BFF7A0879CD120D0D120D07120D9B8F9F
:10097B005EEF3395E0FEEF24CFF552EE34FFF551E9
:10098B00AF52EF25E02456F8E6FC08E6FDEF25E034
:10099B002421F8E6FE08E6B5050DEEB504097BFF4C
:1009AB007A0879F4020A267BFF7A08796B120D0D0F
:1009BB00120D07120D9B8F5EEF3395E0FEEF24D0E7
:1009CB00F555EE34FFF554AF52EF25E02421F8E650
:1009DB00FC08E62555FDE5543CFCEF25E02456F8D4
:1009EB00E6FE08E6C39DEC6480F8EE6480987BFF1E
:1009FB00401C7A09791C120D0D120D07E55225E0EA
:100A0B002421F808E55526F618E55436F6227A091E
:0F0A1B007940120D0D7BFF7A08791E120D0D2206
:100D3200120D8F120D6F120C6EE55364496005E5BA
:100D420053B46903120AB6E55364526005E553B41D
:070D520072E412096B80DF5F
:03000000020A2AC7
:0C0A2A00787FE4F6D8FD75817D020A712A
:100CC800BB010689828A83E0225002E722BBFE022A
:090CD800E32289828A83E493225D
:100CE100E8600FECC313FCED13FDEE13FEEF13FFF1
:030CF100D8F12215
:100CF400E8600FEFC333FFEE33FEED33FDEC33FC5E
:030D0400D8F12201
:100A3600020D32E493A3F8E493A34003F68001F297
:100A460008DFF48029E493A3F85407240CC8C333C1
:100A5600C4540F4420C8834004F456800146F6DF90
:100A6600E4800B0102040810204080900B41E47ED4
:100A7600019360BCA3FF543F30E509541FFEE49385
:100A8600A360010ECF54C025E060A840B8E493A34C
:100A9600FAE493A3F8E493A3C8C582C8CAC583CA77
:100AA600F0A3C8C582C8CAC583CADFE9DEE780BE2F
:010BAC000048
:00000001FF
