:0C0AE20053746F707761746368203A00F1
:040AEE0002110000F1
:1009CF00E4F5A0C282C280C2817F38FE120AA11252
:1009DF000A0B7F067E00120AA1120A0B7F0C7E0003
:1009EF00120AA1120A0B7F017E00120AA1120A0B32
:0709FF007F807E00020AA1C7
:090A06007E00120AA17F047E00AB
:100A0F00E4FDFCC3ED9FEC9E5015E4FBFA0BBB001D
:0F0A1F00010ABA01F8BB7EF50DBD00010C80E4A1
:010A2E0022A5
:100AA100C280C281D2828FA07F0A7E00120A0FC249
:020AB10082229F
:100AB300D280C281D2828FA07F0A7E00120A0FC227
:020AC30082228D
:100A7C008B0C8A0D890EAB0CAA0DA90E1208006006
:100A8C0013050EE50E7002050D14F9120800FF1285
:050A9C000AB380E22214
:100A2F008E0A8F0B7C007D0A120819EF2430FF12FB
:100A3F000AB3120A0BAE0AAF0B7C007D0A1208191B
:070A4F00ED2430FF020AB3A1
:100A56008E088F098D828C837FC0120A06AF09AE7D
:100A660008120A2F120A0B7F3A120AB3120A0BAFA8
:060A760082AE83020A2F8C
:03000B00020930B7
:10093000C0E0C0F0C083C082C0D075D000C000C08D
:1009400002C003C004C005C006C0070510E5107052
:1009500002050FB2B5643C450F700CF50FF510059C
:1009600012E51270020511AD10AC0FAF12AE1112EC
:100970000A56758CFF758AC4C28DD28CD007D006FA
:10098000D005D004D003D002D000D0D0D082D08304
:05099000D0F0D0E032C0
:03001B00020AD501
:0D0AD500B2B6758DBE758BE5C28FD28E3224
:100AC500758910758DBE758BE5D2ABD2AFD28E22EE
:10099500120AC5D290D2B41209CF7F80120A067B03
:1009A500FF7A0A79E2120A7C438905758CFF758AFC
:1009B500C4D2A9D2AFD28C209008C2AFC28CC28E4D
:0A09C50080F5D2AFD28CD28E80ED07
:030000000208A44F
:0C08A400787FE4F6D8FD7581120208EBA5
:10080000BB010689828A83E0225002E722BBFE02F6
:09081000E32289828A83E4932229
:10081900C2D5EC30E709B2D5E4C39DFDE49CFCEEFA
:1008290030E715B2D5E4C39FFFE49EFE12084FC31B
:10083900E49DFDE49CFC800312084F30D507C3E416
:060849009FFFE49EFE2269
:1008B000020995E493A3F8E493A34003F68001F2C0
:1008C00008DFF48029E493A3F85407240CC8C33349
:1008D000C4540F4420C8834004F456800146F6DF18
:1008E000E4800B0102040810204080900AEEE47EB0
:1008F000019360BCA3FF543F30E509541FFEE4930D
:10090000A360010ECF54C025E060A840B8E493A3D3
:10091000FAE493A3F8E493A3C8C582C8CAC583CAFE
:10092000F0A3C8C582C8CAC583CADFE9DEE780BEB6
:010AF2000003
:10084F00BC000BBE0029EF8DF084FFADF022E4CC8D
:10085F00F875F008EF2FFFEE33FEEC33FCEE9DEC56
:10086F00984005FCEE9DFE0FD5F0E9E4CEFD22ED9C
:10087F00F8F5F0EE8420D21CFEADF075F008EF2FE6
:10088F00FFED33FD4007985006D5F0F222C398FDD7
:05089F000FD5F0EA2274
:00000001FF
