:100A9500020A000002080000020E00000210000019
:0C0AA5000212000002140000020C00000D
:1009E700E4F5A0C282C280C2817F38FE120ABC121F
:1009F7000A71120AB8120A717F0C7E00120ABC1221
:100A07000A717F017E00120ABC120A717F807E0084
:030A1700020ABC14
:040A71007F047E0080
:100A7500E4FDFCC3ED9FEC9E5015E4FBFA0BBB00B7
:0F0A8500010ABA01F8BB7EF50DBD00010C80E43B
:010A9400223F
:0A0AB2002430FF120ACE7F067E00FA
:100ABC00C280C281D2828FA07F0A7E00120A75C2C8
:020ACC00822284
:100ACE00D280C281D2828FA07F0A7E00120A75C2A6
:020ADE00822272
:100A4C008B168A178918AB16AA17A9181208B76043
:100A5C00130518E5187002051714F91208B7FF12E0
:050A6C000ACE80E22229
:03001B00020AE0F6
:0B0AE000B2B7758DBE758BE5D28E326B
:03000B00020800E8
:10080000C0E0C0F0C0D075D000C000C002C003C0BE
:1008100004C005C006C007758CFF758AC4D28C055C
:100820000BE50B7002050AAE0AFF7C007D3C120846
:10083000D08C088D09AE0AAF0B7C007D3C1208D02D
:100840008E0C8F0DAE08AF097C007D0A1208D08C8B
:100850000E8D0FAE08AF097C007D0A1208D08E10F5
:100860008F11AE0CAF0D7C007D0A1208D08C128D5A
:1008700013AE0CAF0D7C007D0A1208D08E148F15BC
:100880007F807E00120ABC7F017E00120ABCE51543
:10089000120AB2E513120AB2E511120AB2E50F12FA
:1008A0000AB2D007D006D005D004D003D002D000C1
:0708B000D0D0D0F0D0E032FF
:100A1A001209E7120A717F80120ABC740AD2B475ED
:100A2A008915758CFF758AC4D2A9D2AFD28ED2AB82
:100A3A00758DBE758BE5E5906004D2AF80F8C2AFC4
:020A4A0080F436
:0300000002095B97
:0C095B00787FE4F6D8FD7581180209A22F
:1008B700BB010689828A83E0225002E722BBFE023F
:0908C700E32289828A83E4932272
:1008D000C2D5EC30E709B2D5E4C39DFDE49CFCEE43
:1008E00030E715B2D5E4C39FFFE49EFE120906C3AC
:1008F000E49DFDE49CFC800312090630D507C3E4A7
:060900009FFFE49EFE22B1
:10096700020A1AE493A3F8E493A34003F68001F282
:1009770008DFF48029E493A3F85407240CC8C33391
:10098700C4540F4420C8834004F456800146F6DF60
:10099700E4800B0102040810204080900A95E47E51
:1009A700019360BCA3FF543F30E509541FFEE49355
:1009B700A360010ECF54C025E060A840B8E493A31C
:1009C700FAE493A3F8E493A3C8C582C8CAC583CA47
:1009D700F0A3C8C582C8CAC583CADFE9DEE780BEFF
:010AB1000044
:10090600BC000BBE0029EF8DF084FFADF022E4CCD5
:10091600F875F008EF2FFFEE33FEEC33FCEE9DEC9E
:10092600984005FCEE9DFE0FD5F0E9E4CEFD22EDE4
:10093600F8F5F0EE8420D21CFEADF075F008EF2F2E
:10094600FFED33FD4007985006D5F0F222C398FD1F
:050956000FD5F0EA22BC
:00000001FF
