:1009A0005072657373204120666F72204163636FDC
:1009B000756E7420646973706C617920616E642057
:1009C0005720666F72207769746864726177696E08
:1009D000672063617368000D0A004163636F756E81
:1009E0007420486F6C6465723A20004163636F75D0
:1009F0006E742042616C616E63653A2000496E73CB
:100A00007566666369656E742046756E6473005220
:100A1000656D61696E696E672042616C616E6365C8
:100A20003A2000353030204E6F7465733A20002C28
:100A300020313030204E6F7465733A2000530069C6
:100A4000007400610047004E6F2073756368206179
:100A500063636F756E742C20706C656173652065BF
:100A60006E7465722076616C696420646574616976
:100A70006C73005769746864726177207374617471
:100A8000652C20656E746572206163636F756E748A
:100A9000206E756D62657200456E74657220416DE1
:100AA0006F756E742C20696E2068756E6472656453
:100AB0007300496E76616C696420416D6F756E7468
:100AC00000410048656C6C6F2C20506C656173654B
:100AD00020656E746572204163636F756E74204E7D
:0A0AE000756D626572005700770023
:100FB500C100C102C10102280000023A0064023CDE
:100FC50000640422303030300430303030300434A6
:0E0FD50030303030023E3030014630014330C3
:100F7E00E4F5A0C282C280C2817F38FE12106E12CA
:100F8E0010347F067E0012106E1210347F0C7E001D
:100F9E0012106E1210347F017E0012106E12103479
:070FAE007F807E0002106E3F
:041034007F047E00B7
:10103800E4FDFCC3ED9FEC9E5015E4FBFA0BBB00EE
:0F104800010ABA01F8BB7EF50DBD00010C80E472
:011057002276
:080BFA007A00793EAF45AE44DC
:100C02008E188F198B1A8A1B891C7C277D10120B58
:100C120049EF2430120B03AE18AF197C277D101256
:100C22000B497E037FE8CFCDCFCECCCE120B49EF5E
:100C32002430AB1AAA1BA91C900001120B15AE1886
:100C4200AF197C037DE8120B497E007F64CFCDCFC4
:100C5200CECCCE120B49EF2430AB1AAA1BA91C90A2
:100C62000002120B15AE18AF197C007D64120B49FD
:100C72007E007F0ACFCDCFCECCCE120B49EF2430EF
:100C8200AB1AAA1BA91C900003120B15AE18AF19C0
:100C92007C007D0A120B49ED2430AB1AAA1BA91C59
:060CA200900004020B1596
:10106E00C280C281D2828FA07F0A7E00121038C247
:02107E008222CC
:10108000D280C281D2828FA07F0A7E00121038C225
:021090008222BA
:10100F008B1D8A1E891FAB1DAA1EA91F120AEA601B
:10101F0013051FE51F7002051E14F9120AEAFF12CD
:05102F00108080E222A8
:0C10C40075C33F43B104D2AF43C34022C8
:080E94008F4A8E498D488C47FE
:100E9C00C2007810120BD4E48FC53000FDA942C2F9
:100EAC0000AF4AAE49AD48AC477808120BD48FC599
:100EBC003000FDAB42C200E54AFF8FC53000FDADEE
:100ECC0042EB7B00FA7E00E97810C333CE33CED8E8
:100EDC00F92BFFEE3AFE7C00EF2DFFEC3EFE339536
:030EEC00E0FDFC2A
:010EEF0022E0
:03004B0002105848
:10105800C0E0C0D0E5C454F02480700585C542D2F4
:0610680000D0D0D0E03200
:0310E200D2942283
:020DCD00AB0772
:100DCF00E4F50FF50E750D01F50CEF75F010A47E1F
:100DDF00005470FFEE3395E0FDFCEF4480FFED789B
:100DEF0008120BE78F138E128D118C10E50F251340
:100DFF00FFE50E3512FEE50D3511FDE50C3510FC46
:100E0F00C294120E948F0B8E0A8D098C08D294E522
:100E1F000BF50BE50A5403F50AE4F509F508AE0ADC
:020E2F00AF0B07
:010E3100229E
:1010A400758920758DFD759850D28ED2ACD2AF2241
:0810DA008F993002FDC20222D1
:060FE4007BFF7A0979D7BA
:100FEA008B188A19891AAB18AA19A91A120AEA605F
:100FFA0013051AE51A7002051914F9120AEAFF1202
:05100A0010DA80E22273
:0910D000E4FF3001FDC201AF99FB
:0110D90022F4
:030023000210B414
:1010B400309905C299D20232309804C298D20132D2
:101092007BFF7A0979A0120FEA120FE41210D08FA7
:0210A200262204
:100F3B008B158A168917AF05AE047B007A007930C2
:100F4B00120C027BFF7A0979DA120FEAAB15AA169B
:100F5B00A917120FEA120FE47BFF7A0979EB120F34
:100F6B00EA7B007A007930120FEA7BFF7A0979D796
:030F7B00020FEA78
:100800008E148F15ED64014C60030208CDD3E515FD
:10081000953BE53A6480F8E51464809840097BFFD5
:100820007A0979FD02099CAE14AF157C007D051292
:100830000B9E8E448F45AE14AF157C007D05120BC8
:100840009E8C408D41C3E53B9515F53BE53A9514EB
:10085000F53A7BFF7A0A790F120FEAAE3AAF3B7C8A
:10086000007D64120B377B007A007934120C027B16
:10087000007A007934120FEA120FE47BFF7A0A79CA
:1008800023120FEAD3E5459409E544648094807B04
:1008900000400B120BFA7B007A00793E800D7A0043
:1008A0007946120BFE7B007A007946120FEA7BFF35
:1008B0007A0A792F120FEA7B007A007943AF41AEB2
:1008C00040120C027B007A00794302099CE53964EE
:1008D000024538600302099FD3E515953DE53C6468
:1008E00080F8E51464809840107BFF7A0979FD1246
:1008F0000FEA75280075290122AE14AF157C007D22
:1009000005120B9E8E448F45AE14AF157C007D05FD
:10091000120B9E8C408D41C3E53D9515F53DE53CA0
:100920009514F53C7BFF7A0A790F120FEAAE3CAFC3
:100930003D7C007D64120B377B007A007934120C09
:10094000027B007A007934120FEA120FE47BFF7AFF
:100950000A7923120FEAD3E5459409E544648094AB
:10096000807B00400B120BFA7B007A00793E800DF1
:100970007A007946120BFE7B007A007946120FEA64
:100980007BFF7A0A792F120FEA7B007A007943AF56
:1009900041AE40120C027B007A007943120FEA222A
:100EF0008F14E5146431701775223D75233F7524F6
:100F000041752543FB7A007922AD3BAC3A801BE565
:100F1000146432701A75224575233F752441752576
:100F200043FB7A007922AD3DAC3C120F3B80097B3C
:0B0F3000FF7A0A7947120FEA021092C4
:100CA8007BFF7A0A7973120FEA120FE41210D08FC1
:100CB80021120EF07BFF7A0A7998120FEA120FE4DC
:100CC8001210D0752A008F2B1210D0752C008F2D82
:100CD800C3742F952BE52A6480F8748098502A7481
:100CE8003A952BE52A6480F8748098401C742F95F7
:100CF8002DE52C6480F8748098500E743A952DE593
:100D08002C6480F8748098500C7BFF7A0A79B212B0
:100D18000FEA021092AE2AAF2B7C007D0A120B3725
:100D2800E52D2FF52FE52C3EF52EE521FD3395E039
:090D3800FCAF2FAE2E12080022C0
:100E32001210C41210A4121092AF26EF3395E0FEE6
:100E420074C16F7003740A6E600FEF3395E0FE7425
:100E520043B50719740AB506147BFF7A0A79C312DF
:100E62000FEA120FE41210D08F27120EF0AF26EF06
:100E72003395E0FE74E66F7003740A6E600FEF3311
:100E820095E0FE74E8B507B1740AB506AC120CA879
:020E920080A737
:03000000020D41AD
:0C0D4100787FE4F6D8FD75814A020D8829
:100AEA00BB010689828A83E0225002E722BBFE020A
:090AFA00E32289828A83E493223D
:100B0300BB010689828A83F0225002F722BBFE01D1
:020B1300F322CB
:100B1500F8BB010DE58229F582E5833AF583E8F016
:100B2500225006E92582C8F622BBFE05E92582C8C2
:020B3500F222AA
:100B3700EF8DF0A4A8F0CF8CF0A428CE8DF0A42ED2
:020B4700FE228C
:100B4900BC000BBE0029EF8DF084FFADF022E4CC90
:100B5900F875F008EF2FFFEE33FEEC33FCEE9DEC59
:100B6900984005FCEE9DFE0FD5F0E9E4CEFD22ED9F
:100B7900F8F5F0EE8420D21CFEADF075F008EF2FE9
:100B8900FFED33FD4007985006D5F0F222C398FDDA
:050B99000FD5F0EA2277
:100B9E00C2D5EC30E709B2D5E4C39DFDE49CFCEE72
:100BAE0030E715B2D5E4C39FFFE49EFE120B49C396
:100BBE00E49DFDE49CFC8003120B4930D507C3E491
:060BCE009FFFE49EFE22E1
:100BD400E8600FECC313FCED13FDEE13FEEF13FFFF
:030BE400D8F12223
:100BE700E8600FEFC333FFEE33FEED33FDEC33FC6C
:030BF700D8F12210
:100D4D00020E32E493A3F8E493A34003F68001F27C
:100D5D0008DFF48029E493A3F85407240CC8C333A7
:100D6D00C4540F4420C8834004F456800146F6DF76
:100D7D00E4800B0102040810204080900FB5E47E42
:100D8D00019360BCA3FF543F30E509541FFEE4936B
:100D9D00A360010ECF54C025E060A840B8E493A332
:100DAD00FAE493A3F8E493A3C8C582C8CAC583CA5D
:100DBD00F0A3C8C582C8CAC583CADFE9DEE780BE15
:010FE300000D
:00000001FF
